{
  "contractName": "Dragon",
  "abi": [
    {
      "constant": true,
      "inputs": [],
      "name": "player1amount",
      "outputs": [
        {
          "name": "",
          "type": "uint256"
        }
      ],
      "payable": false,
      "stateMutability": "view",
      "type": "function"
    },
    {
      "constant": true,
      "inputs": [],
      "name": "getWinnerAddress",
      "outputs": [
        {
          "name": "",
          "type": "address"
        }
      ],
      "payable": false,
      "stateMutability": "view",
      "type": "function"
    },
    {
      "constant": false,
      "inputs": [
        {
          "name": "myid",
          "type": "bytes32"
        },
        {
          "name": "result",
          "type": "string"
        }
      ],
      "name": "__callback",
      "outputs": [],
      "payable": false,
      "stateMutability": "nonpayable",
      "type": "function"
    },
    {
      "constant": false,
      "inputs": [
        {
          "name": "myid",
          "type": "bytes32"
        },
        {
          "name": "result",
          "type": "string"
        },
        {
          "name": "proof",
          "type": "bytes"
        }
      ],
      "name": "__callback",
      "outputs": [],
      "payable": false,
      "stateMutability": "nonpayable",
      "type": "function"
    },
    {
      "constant": true,
      "inputs": [],
      "name": "player2",
      "outputs": [
        {
          "name": "",
          "type": "address"
        }
      ],
      "payable": false,
      "stateMutability": "view",
      "type": "function"
    },
    {
      "constant": true,
      "inputs": [],
      "name": "betsPlaced",
      "outputs": [
        {
          "name": "",
          "type": "uint256"
        }
      ],
      "payable": false,
      "stateMutability": "view",
      "type": "function"
    },
    {
      "constant": true,
      "inputs": [
        {
          "name": "",
          "type": "address"
        }
      ],
      "name": "bets",
      "outputs": [
        {
          "name": "",
          "type": "string"
        }
      ],
      "payable": false,
      "stateMutability": "view",
      "type": "function"
    },
    {
      "constant": false,
      "inputs": [
        {
          "name": "teamID",
          "type": "string"
        }
      ],
      "name": "placeBet",
      "outputs": [],
      "payable": true,
      "stateMutability": "payable",
      "type": "function"
    },
    {
      "constant": true,
      "inputs": [],
      "name": "stage",
      "outputs": [
        {
          "name": "",
          "type": "uint8"
        }
      ],
      "payable": false,
      "stateMutability": "view",
      "type": "function"
    },
    {
      "constant": true,
      "inputs": [],
      "name": "player1",
      "outputs": [
        {
          "name": "",
          "type": "address"
        }
      ],
      "payable": false,
      "stateMutability": "view",
      "type": "function"
    },
    {
      "constant": true,
      "inputs": [],
      "name": "escrow",
      "outputs": [
        {
          "name": "",
          "type": "address"
        }
      ],
      "payable": false,
      "stateMutability": "view",
      "type": "function"
    },
    {
      "constant": true,
      "inputs": [],
      "name": "winnerAddress",
      "outputs": [
        {
          "name": "",
          "type": "address"
        }
      ],
      "payable": false,
      "stateMutability": "view",
      "type": "function"
    },
    {
      "constant": true,
      "inputs": [],
      "name": "queryResult",
      "outputs": [
        {
          "name": "",
          "type": "string"
        }
      ],
      "payable": false,
      "stateMutability": "view",
      "type": "function"
    },
    {
      "inputs": [],
      "payable": true,
      "stateMutability": "payable",
      "type": "constructor"
    },
    {
      "payable": true,
      "stateMutability": "payable",
      "type": "fallback"
    }
  ],
  "bytecode": "0x60606040526000600d60006101000a81548160ff0219169083600181111561002357fe5b0217905550600060058190555030600860006101000a81548173ffffffffffffffffffffffffffffffffffffffff021916908373ffffffffffffffffffffffffffffffffffffffff160217905550611ef5806100806000396000f3006060604052600436106100c5576000357c0100000000000000000000000000000000000000000000000000000000900463ffffffff16806308b41d25146100c757806310a37c26146100f057806327dc297e1461014557806338bbfa50146101af57806359a5f12d1461025c578063645cafb3146102b157806389a78f1a146102da57806397bfeb881461038c578063c040e6b8146103de578063d30895e414610415578063e2fdcc171461046a578063ed7a4e0b146104bf578063f9e9e6b714610514575b005b34156100d257600080fd5b6100da6105a2565b6040518082815260200191505060405180910390f35b34156100fb57600080fd5b6101036105a8565b604051808273ffffffffffffffffffffffffffffffffffffffff1673ffffffffffffffffffffffffffffffffffffffff16815260200191505060405180910390f35b341561015057600080fd5b6101ad60048080356000191690602001909190803590602001908201803590602001908080601f01602080910402602001604051908101604052809392919081815260200183838082843782019150505050505091905050610608565b005b34156101ba57600080fd5b61025a60048080356000191690602001909190803590602001908201803590602001908080601f0160208091040260200160405190810160405280939291908181526020018383808284378201915050505050509190803590602001908201803590602001908080601f01602080910402602001604051908101604052809392919081815260200183838082843782019150505050505091905050610bf5565b005b341561026757600080fd5b61026f610bfa565b604051808273ffffffffffffffffffffffffffffffffffffffff1673ffffffffffffffffffffffffffffffffffffffff16815260200191505060405180910390f35b34156102bc57600080fd5b6102c4610c20565b6040518082815260200191505060405180910390f35b34156102e557600080fd5b610311600480803573ffffffffffffffffffffffffffffffffffffffff16906020019091905050610c26565b6040518080602001828103825283818151815260200191508051906020019080838360005b83811015610351578082015181840152602081019050610336565b50505050905090810190601f16801561037e5780820380516001836020036101000a031916815260200191505b509250505060405180910390f35b6103dc600480803590602001908201803590602001908080601f01602080910402602001604051908101604052809392919081815260200183838082843782019150505050505091905050610cd6565b005b34156103e957600080fd5b6103f161108d565b6040518082600181111561040157fe5b60ff16815260200191505060405180910390f35b341561042057600080fd5b6104286110a0565b604051808273ffffffffffffffffffffffffffffffffffffffff1673ffffffffffffffffffffffffffffffffffffffff16815260200191505060405180910390f35b341561047557600080fd5b61047d6110c6565b604051808273ffffffffffffffffffffffffffffffffffffffff1673ffffffffffffffffffffffffffffffffffffffff16815260200191505060405180910390f35b34156104ca57600080fd5b6104d26110ec565b604051808273ffffffffffffffffffffffffffffffffffffffff1673ffffffffffffffffffffffffffffffffffffffff16815260200191505060405180910390f35b341561051f57600080fd5b610527611112565b6040518080602001828103825283818151815260200191508051906020019080838360005b8381101561056757808201518184015260208101905061054c565b50505050905090810190601f1680156105945780820380516001836020036101000a031916815260200191505b509250505060405180910390f35b60065481565b600060018060018111156105b857fe5b600d60009054906101000a900460ff1660018111156105d357fe5b1415156105df57600080fd5b600960009054906101000a900473ffffffffffffffffffffffffffffffffffffffff1691505090565b80600c908051906020019061061e929190611e24565b50806040518082805190602001908083835b6020831015156106555780518252602082019150602081019050602083039250610630565b6001836020036101000a03801982511681845116808217855250505050505090500191505060405180910390206000191660076000600a60009054906101000a900473ffffffffffffffffffffffffffffffffffffffff1673ffffffffffffffffffffffffffffffffffffffff1673ffffffffffffffffffffffffffffffffffffffff16815260200190815260200160002060405180828054600181600116156101000203166002900480156107425780601f10610720576101008083540402835291820191610742565b820191906000526020600020905b81548152906001019060200180831161072e575b5050915050604051809103902060001916141561085c57600a60009054906101000a900473ffffffffffffffffffffffffffffffffffffffff1673ffffffffffffffffffffffffffffffffffffffff166108fc600860009054906101000a900473ffffffffffffffffffffffffffffffffffffffff1673ffffffffffffffffffffffffffffffffffffffff16319081150290604051600060405180830381858888f1935050505015156107f457600080fd5b600a60009054906101000a900473ffffffffffffffffffffffffffffffffffffffff16600960006101000a81548173ffffffffffffffffffffffffffffffffffffffff021916908373ffffffffffffffffffffffffffffffffffffffff160217905550610be9565b806040518082805190602001908083835b602083101515610892578051825260208201915060208101905060208303925061086d565b6001836020036101000a03801982511681845116808217855250505050505090500191505060405180910390206000191660076000600b60009054906101000a900473ffffffffffffffffffffffffffffffffffffffff1673ffffffffffffffffffffffffffffffffffffffff1673ffffffffffffffffffffffffffffffffffffffff168152602001908152602001600020604051808280546001816001161561010002031660029004801561097f5780601f1061095d57610100808354040283529182019161097f565b820191906000526020600020905b81548152906001019060200180831161096b575b50509150506040518091039020600019161415610a9957600b60009054906101000a900473ffffffffffffffffffffffffffffffffffffffff1673ffffffffffffffffffffffffffffffffffffffff166108fc600860009054906101000a900473ffffffffffffffffffffffffffffffffffffffff1673ffffffffffffffffffffffffffffffffffffffff16319081150290604051600060405180830381858888f193505050501515610a3157600080fd5b600b60009054906101000a900473ffffffffffffffffffffffffffffffffffffffff16600960006101000a81548173ffffffffffffffffffffffffffffffffffffffff021916908373ffffffffffffffffffffffffffffffffffffffff160217905550610be8565b600a60009054906101000a900473ffffffffffffffffffffffffffffffffffffffff1673ffffffffffffffffffffffffffffffffffffffff166108fc6002600860009054906101000a900473ffffffffffffffffffffffffffffffffffffffff1673ffffffffffffffffffffffffffffffffffffffff1631811515610b1a57fe5b049081150290604051600060405180830381858888f193505050501515610b4057600080fd5b600b60009054906101000a900473ffffffffffffffffffffffffffffffffffffffff1673ffffffffffffffffffffffffffffffffffffffff166108fc6002600860009054906101000a900473ffffffffffffffffffffffffffffffffffffffff1673ffffffffffffffffffffffffffffffffffffffff1631811515610bc157fe5b049081150290604051600060405180830381858888f193505050501515610be757600080fd5b5b5b610bf16111b0565b5050565b505050565b600b60009054906101000a900473ffffffffffffffffffffffffffffffffffffffff1681565b60055481565b60076020528060005260406000206000915090508054600181600116156101000203166002900480601f016020809104026020016040519081016040528092919081815260200182805460018160011615610100020316600290048015610cce5780601f10610ca357610100808354040283529160200191610cce565b820191906000526020600020905b815481529060010190602001808311610cb157829003601f168201915b505050505081565b6000806001811115610ce457fe5b600d60009054906101000a900460ff166001811115610cff57fe5b141515610d0b57600080fd5b662386f26fc10000341480610d26575066470de4df82000034145b80610d375750666a94d74f43000034145b1515610d4257600080fd5b81600760003373ffffffffffffffffffffffffffffffffffffffff1673ffffffffffffffffffffffffffffffffffffffff1681526020019081526020016000209080519060200190610d95929190611e24565b50600160056000828254019250508190555060016005541415610dfb5733600a60006101000a81548173ffffffffffffffffffffffffffffffffffffffff021916908373ffffffffffffffffffffffffffffffffffffffff160217905550346006819055505b600260055414156110895733600b60006101000a81548173ffffffffffffffffffffffffffffffffffffffff021916908373ffffffffffffffffffffffffffffffffffffffff16021790555060065434141515610e5757600080fd5b816040518082805190602001908083835b602083101515610e8d5780518252602082019150602081019050602083039250610e68565b6001836020036101000a03801982511681845116808217855250505050505090500191505060405180910390206000191660076000600a60009054906101000a900473ffffffffffffffffffffffffffffffffffffffff1673ffffffffffffffffffffffffffffffffffffffff1673ffffffffffffffffffffffffffffffffffffffff1681526020019081526020016000206040518082805460018160011615610100020316600290048015610f7a5780601f10610f58576101008083540402835291820191610f7a565b820191906000526020600020905b815481529060010190602001808311610f66575b505091505060405180910390206000191614151515610f9857600080fd5b610fa06113df565b6110876040805190810160405280600381526020017f55524c000000000000000000000000000000000000000000000000000000000081525060a060405190810160405280606881526020017f6a736f6e2868747470733a2f2f626c6f636b636861696e732d6261636b656e6481526020017f2e6865726f6b756170702e636f6d2f6765745f7465616d5f776974685f66697281526020017f73745f647261676f6e5f62795f6d617463685f69642f3137383833343339353581526020017f292e7465616d496400000000000000000000000000000000000000000000000081525061142c565b505b5050565b600d60009054906101000a900460ff1681565b600a60009054906101000a900473ffffffffffffffffffffffffffffffffffffffff1681565b600860009054906101000a900473ffffffffffffffffffffffffffffffffffffffff1681565b600960009054906101000a900473ffffffffffffffffffffffffffffffffffffffff1681565b600c8054600181600116156101000203166002900480601f0160208091040260200160405190810160405280929190818152602001828054600181600116156101000203166002900480156111a85780601f1061117d576101008083540402835291602001916111a8565b820191906000526020600020905b81548152906001019060200180831161118b57829003601f168201915b505050505081565b6000600d60006101000a81548160ff021916908360018111156111cf57fe5b0217905550602060405190810160405280600081525060076000600a60009054906101000a900473ffffffffffffffffffffffffffffffffffffffff1673ffffffffffffffffffffffffffffffffffffffff1673ffffffffffffffffffffffffffffffffffffffff1681526020019081526020016000209080519060200190611259929190611e24565b50602060405190810160405280600081525060076000600b60009054906101000a900473ffffffffffffffffffffffffffffffffffffffff1673ffffffffffffffffffffffffffffffffffffffff1673ffffffffffffffffffffffffffffffffffffffff16815260200190815260200160002090805190602001906112df929190611e24565b506020604051908101604052806000815250600c9080519060200190611306929190611e24565b50600060058190555060006006819055506000600960006101000a81548173ffffffffffffffffffffffffffffffffffffffff021916908373ffffffffffffffffffffffffffffffffffffffff1602179055506000600a60006101000a81548173ffffffffffffffffffffffffffffffffffffffff021916908373ffffffffffffffffffffffffffffffffffffffff1602179055506000600b60006101000a81548173ffffffffffffffffffffffffffffffffffffffff021916908373ffffffffffffffffffffffffffffffffffffffff160217905550565b6001600d60009054906101000a900460ff1660018111156113fc57fe5b01600181111561140857fe5b600d60006101000a81548160ff0219169083600181111561142557fe5b0217905550565b60008060008060009054906101000a900473ffffffffffffffffffffffffffffffffffffffff1673ffffffffffffffffffffffffffffffffffffffff16148061149e5750600061149c6000809054906101000a900473ffffffffffffffffffffffffffffffffffffffff1661196e565b145b156114af576114ad6000611979565b505b6000809054906101000a900473ffffffffffffffffffffffffffffffffffffffff1673ffffffffffffffffffffffffffffffffffffffff166338cc48316000604051602001526040518163ffffffff167c0100000000000000000000000000000000000000000000000000000000028152600401602060405180830381600087803b151561153c57600080fd5b6102c65a03f1151561154d57600080fd5b5050506040518051905073ffffffffffffffffffffffffffffffffffffffff16600160009054906101000a900473ffffffffffffffffffffffffffffffffffffffff1673ffffffffffffffffffffffffffffffffffffffff16141515611696576000809054906101000a900473ffffffffffffffffffffffffffffffffffffffff1673ffffffffffffffffffffffffffffffffffffffff166338cc48316000604051602001526040518163ffffffff167c0100000000000000000000000000000000000000000000000000000000028152600401602060405180830381600087803b151561163a57600080fd5b6102c65a03f1151561164b57600080fd5b50505060405180519050600160006101000a81548173ffffffffffffffffffffffffffffffffffffffff021916908373ffffffffffffffffffffffffffffffffffffffff1602179055505b600160009054906101000a900473ffffffffffffffffffffffffffffffffffffffff1673ffffffffffffffffffffffffffffffffffffffff1663524f3889856000604051602001526040518263ffffffff167c01000000000000000000000000000000000000000000000000000000000281526004018080602001828103825283818151815260200191508051906020019080838360005b8381101561174957808201518184015260208101905061172e565b50505050905090810190601f1680156117765780820380516001836020036101000a031916815260200191505b5092505050602060405180830381600087803b151561179457600080fd5b6102c65a03f115156117a557600080fd5b50505060405180519050905062030d403a02670de0b6b3a7640000018111156117d45760006001029150611967565b600160009054906101000a900473ffffffffffffffffffffffffffffffffffffffff1673ffffffffffffffffffffffffffffffffffffffff1663adf59f9982600087876000604051602001526040518563ffffffff167c0100000000000000000000000000000000000000000000000000000000028152600401808481526020018060200180602001838103835285818151815260200191508051906020019080838360005b8381101561189557808201518184015260208101905061187a565b50505050905090810190601f1680156118c25780820380516001836020036101000a031916815260200191505b50838103825284818151815260200191508051906020019080838360005b838110156118fb5780820151818401526020810190506118e0565b50505050905090810190601f1680156119285780820380516001836020036101000a031916815260200191505b50955050505050506020604051808303818588803b151561194857600080fd5b6125ee5a03f1151561195957600080fd5b505050506040518051905091505b5092915050565b6000813b9050919050565b600080611999731d3b2638a7cc9f2cb3d298a3da7a90b67e5506ed61196e565b1115611a3a57731d3b2638a7cc9f2cb3d298a3da7a90b67e5506ed6000806101000a81548173ffffffffffffffffffffffffffffffffffffffff021916908373ffffffffffffffffffffffffffffffffffffffff160217905550611a316040805190810160405280600b81526020017f6574685f6d61696e6e6574000000000000000000000000000000000000000000815250611e0a565b60019050611e05565b6000611a5973c03a2615d5efaf5f49f60b7bb6583eaec212fdf161196e565b1115611afa5773c03a2615d5efaf5f49f60b7bb6583eaec212fdf16000806101000a81548173ffffffffffffffffffffffffffffffffffffffff021916908373ffffffffffffffffffffffffffffffffffffffff160217905550611af16040805190810160405280600c81526020017f6574685f726f707374656e330000000000000000000000000000000000000000815250611e0a565b60019050611e05565b6000611b1973b7a07bcf2ba2f2703b24c0691b5278999c59ac7e61196e565b1115611bba5773b7a07bcf2ba2f2703b24c0691b5278999c59ac7e6000806101000a81548173ffffffffffffffffffffffffffffffffffffffff021916908373ffffffffffffffffffffffffffffffffffffffff160217905550611bb16040805190810160405280600981526020017f6574685f6b6f76616e0000000000000000000000000000000000000000000000815250611e0a565b60019050611e05565b6000611bd973146500cfd35b22e4a392fe0adc06de1a1368ed4861196e565b1115611c7a5773146500cfd35b22e4a392fe0adc06de1a1368ed486000806101000a81548173ffffffffffffffffffffffffffffffffffffffff021916908373ffffffffffffffffffffffffffffffffffffffff160217905550611c716040805190810160405280600b81526020017f6574685f72696e6b656279000000000000000000000000000000000000000000815250611e0a565b60019050611e05565b6000611c99736f485c8bf6fc43ea212e93bbf8ce046c7f1cb47561196e565b1115611cfc57736f485c8bf6fc43ea212e93bbf8ce046c7f1cb4756000806101000a81548173ffffffffffffffffffffffffffffffffffffffff021916908373ffffffffffffffffffffffffffffffffffffffff16021790555060019050611e05565b6000611d1b7320e12a1f859b3feae5fb2a0a32c18f5a65555bbf61196e565b1115611d7e577320e12a1f859b3feae5fb2a0a32c18f5a65555bbf6000806101000a81548173ffffffffffffffffffffffffffffffffffffffff021916908373ffffffffffffffffffffffffffffffffffffffff16021790555060019050611e05565b6000611d9d7351efaf4c8b3c9afbd5ab9f4bbc82784ab6ef8faa61196e565b1115611e00577351efaf4c8b3c9afbd5ab9f4bbc82784ab6ef8faa6000806101000a81548173ffffffffffffffffffffffffffffffffffffffff021916908373ffffffffffffffffffffffffffffffffffffffff16021790555060019050611e05565b600090505b919050565b8060029080519060200190611e20929190611e24565b5050565b828054600181600116156101000203166002900490600052602060002090601f016020900481019282601f10611e6557805160ff1916838001178555611e93565b82800160010185558215611e93579182015b82811115611e92578251825591602001919060010190611e77565b5b509050611ea09190611ea4565b5090565b611ec691905b80821115611ec2576000816000905550600101611eaa565b5090565b905600a165627a7a7230582029e625833e59ce0108bd90b3066287067e5c089499d8cbd4c2fe0972596370860029",
  "source": "pragma solidity ^0.4.18;\nimport \"/home/jmkjr/Gambling/Training/smartbets/node_modules/ethereum-api-master/oraclizeAPI.sol\";\n\ncontract Dragon is usingOraclize {\n  enum Stages {\n    Betting,\n    Settlement\n  }\n\n  uint public betsPlaced;\n  uint public player1amount;\n  mapping(address => string) public bets;\n  address public escrow;\n  address public winnerAddress;\n  address public player1;\n  address public player2;\n  string public queryResult;\n\n  // current Stage\n  Stages public stage = Stages.Betting;\n\n  modifier atStage(Stages _stage) {\n    require(stage == _stage);\n    _;\n  }\n\n  function Dragon() public payable {\n    betsPlaced = 0;\n    escrow = this;\n  }\n\n  function reset() internal {\n    stage = Stages.Betting;\n    bets[player1] = '';\n    bets[player2] = '';\n    queryResult = '';\n    betsPlaced = 0;\n    player1amount = 0;\n    winnerAddress = 0;\n    player1 = 0;\n    player2 = 0;\n  }\n\n  function () public payable {\n    // accept ether\n  }\n\n  function nextStage() internal {\n    stage = Stages(uint(stage) + 1);\n  }\n\n  function placeBet(string teamID) public payable atStage(Stages.Betting) {\n    require(msg.value == 10000000000000000 || msg.value == 20000000000000000 || msg.value == 30000000000000000);\n    bets[msg.sender] = teamID;\n    betsPlaced += 1;\n    if (betsPlaced == 1) {\n      player1 = msg.sender;\n      player1amount = msg.value;\n    }\n    if (betsPlaced == 2) {\n      player2 = msg.sender;\n      require(msg.value == player1amount);\n      require(keccak256(bets[player1]) != keccak256(teamID));\n      nextStage();\n      oraclize_query(\"URL\", \"json(https://blockchains-backend.herokuapp.com/get_team_with_first_dragon_by_match_id/1788343955).teamId\");\n    }\n  }\n\n  function getWinnerAddress() public view atStage(Stages.Settlement) returns (address) {\n    return winnerAddress;\n  }\n\n  function __callback(bytes32 myid, string result) {\n    queryResult = result;\n    if (keccak256(bets[player1]) == keccak256(result)) {\n      player1.transfer(escrow.balance);\n      winnerAddress = player1;\n    } else if (keccak256(bets[player2]) == keccak256(result)) {\n      player2.transfer(escrow.balance);\n      winnerAddress = player2;\n    } else {\n      player1.transfer(escrow.balance / 2.0);\n      player2.transfer(escrow.balance / 2.0);\n    }\n    reset();\n  }\n\n}\n",
  "sourcePath": "/home/jmkjr/Gambling/Training/smartbets/contracts/Dragon.sol",
  "compiler": {
    "name": "solc",
    "version": "0.4.18+commit.9cf6e910.Emscripten.clang"
  },
  "schemaVersion": "1.0.1",
  "updatedAt": "2018-05-04T02:53:19.626Z"
}