{
  "contractName": "Outcome",
  "abi": [
    {
      "constant": true,
      "inputs": [],
      "name": "getWinnerAddress",
      "outputs": [
        {
          "name": "",
          "type": "address"
        }
      ],
      "payable": false,
      "stateMutability": "view",
      "type": "function"
    },
    {
      "constant": true,
      "inputs": [],
      "name": "getState",
      "outputs": [
        {
          "name": "",
          "type": "uint8"
        }
      ],
      "payable": false,
      "stateMutability": "view",
      "type": "function"
    },
    {
      "constant": false,
      "inputs": [
        {
          "name": "myid",
          "type": "bytes32"
        },
        {
          "name": "result",
          "type": "string"
        }
      ],
      "name": "__callback",
      "outputs": [],
      "payable": false,
      "stateMutability": "nonpayable",
      "type": "function"
    },
    {
      "constant": true,
      "inputs": [],
      "name": "getPlayer1Bet",
      "outputs": [
        {
          "name": "",
          "type": "string"
        }
      ],
      "payable": false,
      "stateMutability": "view",
      "type": "function"
    },
    {
      "constant": false,
      "inputs": [
        {
          "name": "myid",
          "type": "bytes32"
        },
        {
          "name": "result",
          "type": "string"
        },
        {
          "name": "proof",
          "type": "bytes"
        }
      ],
      "name": "__callback",
      "outputs": [],
      "payable": false,
      "stateMutability": "nonpayable",
      "type": "function"
    },
    {
      "constant": true,
      "inputs": [],
      "name": "player2",
      "outputs": [
        {
          "name": "",
          "type": "address"
        }
      ],
      "payable": false,
      "stateMutability": "view",
      "type": "function"
    },
    {
      "constant": true,
      "inputs": [],
      "name": "betsPlaced",
      "outputs": [
        {
          "name": "",
          "type": "uint256"
        }
      ],
      "payable": false,
      "stateMutability": "view",
      "type": "function"
    },
    {
      "constant": true,
      "inputs": [
        {
          "name": "",
          "type": "address"
        }
      ],
      "name": "bets",
      "outputs": [
        {
          "name": "",
          "type": "string"
        }
      ],
      "payable": false,
      "stateMutability": "view",
      "type": "function"
    },
    {
      "constant": false,
      "inputs": [
        {
          "name": "teamID",
          "type": "string"
        }
      ],
      "name": "placeBet",
      "outputs": [],
      "payable": true,
      "stateMutability": "payable",
      "type": "function"
    },
    {
      "constant": true,
      "inputs": [],
      "name": "getQueryResult",
      "outputs": [
        {
          "name": "",
          "type": "string"
        }
      ],
      "payable": false,
      "stateMutability": "view",
      "type": "function"
    },
    {
      "constant": true,
      "inputs": [],
      "name": "stage",
      "outputs": [
        {
          "name": "",
          "type": "uint8"
        }
      ],
      "payable": false,
      "stateMutability": "view",
      "type": "function"
    },
    {
      "constant": true,
      "inputs": [],
      "name": "player1",
      "outputs": [
        {
          "name": "",
          "type": "address"
        }
      ],
      "payable": false,
      "stateMutability": "view",
      "type": "function"
    },
    {
      "constant": true,
      "inputs": [],
      "name": "escrow",
      "outputs": [
        {
          "name": "",
          "type": "address"
        }
      ],
      "payable": false,
      "stateMutability": "view",
      "type": "function"
    },
    {
      "constant": true,
      "inputs": [],
      "name": "winnerAddress",
      "outputs": [
        {
          "name": "",
          "type": "address"
        }
      ],
      "payable": false,
      "stateMutability": "view",
      "type": "function"
    },
    {
      "constant": true,
      "inputs": [],
      "name": "queryResult",
      "outputs": [
        {
          "name": "",
          "type": "string"
        }
      ],
      "payable": false,
      "stateMutability": "view",
      "type": "function"
    },
    {
      "inputs": [],
      "payable": true,
      "stateMutability": "payable",
      "type": "constructor"
    },
    {
      "payable": true,
      "stateMutability": "payable",
      "type": "fallback"
    }
  ],
  "bytecode": "0x60606040526000600c60006101000a81548160ff0219169083600181111561002357fe5b0217905550600060058190555030600760006101000a81548173ffffffffffffffffffffffffffffffffffffffff021916908373ffffffffffffffffffffffffffffffffffffffff160217905550611bdc806100806000396000f3006060604052600436106100db576000357c0100000000000000000000000000000000000000000000000000000000900463ffffffff16806310a37c26146100dd5780631865c57d1461013257806327dc297e14610169578063379354d6146101d357806338bbfa501461026157806359a5f12d1461030e578063645cafb31461036357806389a78f1a1461038c57806397bfeb881461043e578063a04de9b914610490578063c040e6b81461051e578063d30895e414610555578063e2fdcc17146105aa578063ed7a4e0b146105ff578063f9e9e6b714610654575b005b34156100e857600080fd5b6100f06106e2565b604051808273ffffffffffffffffffffffffffffffffffffffff1673ffffffffffffffffffffffffffffffffffffffff16815260200191505060405180910390f35b341561013d57600080fd5b610145610742565b6040518082600181111561015557fe5b60ff16815260200191505060405180910390f35b341561017457600080fd5b6101d160048080356000191690602001909190803590602001908201803590602001908080601f0160208091040260200160405190810160405280939291908181526020018383808284378201915050505050509190505061076f565b005b34156101de57600080fd5b6101e6610ac6565b6040518080602001828103825283818151815260200191508051906020019080838360005b8381101561022657808201518184015260208101905061020b565b50505050905090810190601f1680156102535780820380516001836020036101000a031916815260200191505b509250505060405180910390f35b341561026c57600080fd5b61030c60048080356000191690602001909190803590602001908201803590602001908080601f0160208091040260200160405190810160405280939291908181526020018383808284378201915050505050509190803590602001908201803590602001908080601f01602080910402602001604051908101604052809392919081815260200183838082843782019150505050505091905050610bcd565b005b341561031957600080fd5b610321610bd2565b604051808273ffffffffffffffffffffffffffffffffffffffff1673ffffffffffffffffffffffffffffffffffffffff16815260200191505060405180910390f35b341561036e57600080fd5b610376610bf8565b6040518082815260200191505060405180910390f35b341561039757600080fd5b6103c3600480803573ffffffffffffffffffffffffffffffffffffffff16906020019091905050610bfe565b6040518080602001828103825283818151815260200191508051906020019080838360005b838110156104035780820151818401526020810190506103e8565b50505050905090810190601f1680156104305780820380516001836020036101000a031916815260200191505b509250505060405180910390f35b61048e600480803590602001908201803590602001908080601f01602080910402602001604051908101604052809392919081815260200183838082843782019150505050505091905050610cae565b005b341561049b57600080fd5b6104a3610ee7565b6040518080602001828103825283818151815260200191508051906020019080838360005b838110156104e35780820151818401526020810190506104c8565b50505050905090810190601f1680156105105780820380516001836020036101000a031916815260200191505b509250505060405180910390f35b341561052957600080fd5b610531610f8f565b6040518082600181111561054157fe5b60ff16815260200191505060405180910390f35b341561056057600080fd5b610568610fa2565b604051808273ffffffffffffffffffffffffffffffffffffffff1673ffffffffffffffffffffffffffffffffffffffff16815260200191505060405180910390f35b34156105b557600080fd5b6105bd610fc8565b604051808273ffffffffffffffffffffffffffffffffffffffff1673ffffffffffffffffffffffffffffffffffffffff16815260200191505060405180910390f35b341561060a57600080fd5b610612610fee565b604051808273ffffffffffffffffffffffffffffffffffffffff1673ffffffffffffffffffffffffffffffffffffffff16815260200191505060405180910390f35b341561065f57600080fd5b610667611014565b6040518080602001828103825283818151815260200191508051906020019080838360005b838110156106a757808201518184015260208101905061068c565b50505050905090810190601f1680156106d45780820380516001836020036101000a031916815260200191505b509250505060405180910390f35b600060018060018111156106f257fe5b600c60009054906101000a900460ff16600181111561070d57fe5b14151561071957600080fd5b600860009054906101000a900473ffffffffffffffffffffffffffffffffffffffff1691505090565b6000600c60009054906101000a900460ff16600181111561075f57fe5b600181111561076a57fe5b905090565b80600b9080519060200190610785929190611af7565b50806040518082805190602001908083835b6020831015156107bc5780518252602082019150602081019050602083039250610797565b6001836020036101000a03801982511681845116808217855250505050505090500191505060405180910390206000191660066000600960009054906101000a900473ffffffffffffffffffffffffffffffffffffffff1673ffffffffffffffffffffffffffffffffffffffff1673ffffffffffffffffffffffffffffffffffffffff16815260200190815260200160002060405180828054600181600116156101000203166002900480156108a95780601f106108875761010080835404028352918201916108a9565b820191906000526020600020905b815481529060010190602001808311610895575b505091505060405180910390206000191614156109c357600960009054906101000a900473ffffffffffffffffffffffffffffffffffffffff1673ffffffffffffffffffffffffffffffffffffffff166108fc600760009054906101000a900473ffffffffffffffffffffffffffffffffffffffff1673ffffffffffffffffffffffffffffffffffffffff16319081150290604051600060405180830381858888f19350505050151561095b57600080fd5b600960009054906101000a900473ffffffffffffffffffffffffffffffffffffffff16600860006101000a81548173ffffffffffffffffffffffffffffffffffffffff021916908373ffffffffffffffffffffffffffffffffffffffff160217905550610ac2565b600a60009054906101000a900473ffffffffffffffffffffffffffffffffffffffff1673ffffffffffffffffffffffffffffffffffffffff166108fc600760009054906101000a900473ffffffffffffffffffffffffffffffffffffffff1673ffffffffffffffffffffffffffffffffffffffff16319081150290604051600060405180830381858888f193505050501515610a5e57600080fd5b600a60009054906101000a900473ffffffffffffffffffffffffffffffffffffffff16600860006101000a81548173ffffffffffffffffffffffffffffffffffffffff021916908373ffffffffffffffffffffffffffffffffffffffff1602179055505b5050565b610ace611b77565b60066000600960009054906101000a900473ffffffffffffffffffffffffffffffffffffffff1673ffffffffffffffffffffffffffffffffffffffff1673ffffffffffffffffffffffffffffffffffffffff1681526020019081526020016000208054600181600116156101000203166002900480601f016020809104026020016040519081016040528092919081815260200182805460018160011615610100020316600290048015610bc35780601f10610b9857610100808354040283529160200191610bc3565b820191906000526020600020905b815481529060010190602001808311610ba657829003601f168201915b5050505050905090565b505050565b600a60009054906101000a900473ffffffffffffffffffffffffffffffffffffffff1681565b60055481565b60066020528060005260406000206000915090508054600181600116156101000203166002900480601f016020809104026020016040519081016040528092919081815260200182805460018160011615610100020316600290048015610ca65780601f10610c7b57610100808354040283529160200191610ca6565b820191906000526020600020905b815481529060010190602001808311610c8957829003601f168201915b505050505081565b6000806001811115610cbc57fe5b600c60009054906101000a900460ff166001811115610cd757fe5b141515610ce357600080fd5b662386f26fc10000341480610cfe575066470de4df82000034145b80610d0f5750666a94d74f43000034145b1515610d1a57600080fd5b81600660003373ffffffffffffffffffffffffffffffffffffffff1673ffffffffffffffffffffffffffffffffffffffff1681526020019081526020016000209080519060200190610d6d929190611af7565b50600160056000828254019250508190555060016005541415610dcc5733600960006101000a81548173ffffffffffffffffffffffffffffffffffffffff021916908373ffffffffffffffffffffffffffffffffffffffff1602179055505b60026005541415610ee35733600a60006101000a81548173ffffffffffffffffffffffffffffffffffffffff021916908373ffffffffffffffffffffffffffffffffffffffff160217905550610e206110b2565b610ee16040805190810160405280600381526020017f55524c0000000000000000000000000000000000000000000000000000000000815250608060405190810160405280605e81526020017f6a736f6e2868747470733a2f2f626c6f636b636861696e732d6261636b656e6481526020017f2e6865726f6b756170702e636f6d2f6765745f77696e6e696e675f7465616d5f81526020017f62795f6d617463685f69642f31373838333737333736292e7465616d496400008152506110ff565b505b5050565b610eef611b77565b600b8054600181600116156101000203166002900480601f016020809104026020016040519081016040528092919081815260200182805460018160011615610100020316600290048015610f855780601f10610f5a57610100808354040283529160200191610f85565b820191906000526020600020905b815481529060010190602001808311610f6857829003601f168201915b5050505050905090565b600c60009054906101000a900460ff1681565b600960009054906101000a900473ffffffffffffffffffffffffffffffffffffffff1681565b600760009054906101000a900473ffffffffffffffffffffffffffffffffffffffff1681565b600860009054906101000a900473ffffffffffffffffffffffffffffffffffffffff1681565b600b8054600181600116156101000203166002900480601f0160208091040260200160405190810160405280929190818152602001828054600181600116156101000203166002900480156110aa5780601f1061107f576101008083540402835291602001916110aa565b820191906000526020600020905b81548152906001019060200180831161108d57829003601f168201915b505050505081565b6001600c60009054906101000a900460ff1660018111156110cf57fe5b0160018111156110db57fe5b600c60006101000a81548160ff021916908360018111156110f857fe5b0217905550565b60008060008060009054906101000a900473ffffffffffffffffffffffffffffffffffffffff1673ffffffffffffffffffffffffffffffffffffffff1614806111715750600061116f6000809054906101000a900473ffffffffffffffffffffffffffffffffffffffff16611641565b145b1561118257611180600061164c565b505b6000809054906101000a900473ffffffffffffffffffffffffffffffffffffffff1673ffffffffffffffffffffffffffffffffffffffff166338cc48316000604051602001526040518163ffffffff167c0100000000000000000000000000000000000000000000000000000000028152600401602060405180830381600087803b151561120f57600080fd5b6102c65a03f1151561122057600080fd5b5050506040518051905073ffffffffffffffffffffffffffffffffffffffff16600160009054906101000a900473ffffffffffffffffffffffffffffffffffffffff1673ffffffffffffffffffffffffffffffffffffffff16141515611369576000809054906101000a900473ffffffffffffffffffffffffffffffffffffffff1673ffffffffffffffffffffffffffffffffffffffff166338cc48316000604051602001526040518163ffffffff167c0100000000000000000000000000000000000000000000000000000000028152600401602060405180830381600087803b151561130d57600080fd5b6102c65a03f1151561131e57600080fd5b50505060405180519050600160006101000a81548173ffffffffffffffffffffffffffffffffffffffff021916908373ffffffffffffffffffffffffffffffffffffffff1602179055505b600160009054906101000a900473ffffffffffffffffffffffffffffffffffffffff1673ffffffffffffffffffffffffffffffffffffffff1663524f3889856000604051602001526040518263ffffffff167c01000000000000000000000000000000000000000000000000000000000281526004018080602001828103825283818151815260200191508051906020019080838360005b8381101561141c578082015181840152602081019050611401565b50505050905090810190601f1680156114495780820380516001836020036101000a031916815260200191505b5092505050602060405180830381600087803b151561146757600080fd5b6102c65a03f1151561147857600080fd5b50505060405180519050905062030d403a02670de0b6b3a7640000018111156114a7576000600102915061163a565b600160009054906101000a900473ffffffffffffffffffffffffffffffffffffffff1673ffffffffffffffffffffffffffffffffffffffff1663adf59f9982600087876000604051602001526040518563ffffffff167c0100000000000000000000000000000000000000000000000000000000028152600401808481526020018060200180602001838103835285818151815260200191508051906020019080838360005b8381101561156857808201518184015260208101905061154d565b50505050905090810190601f1680156115955780820380516001836020036101000a031916815260200191505b50838103825284818151815260200191508051906020019080838360005b838110156115ce5780820151818401526020810190506115b3565b50505050905090810190601f1680156115fb5780820380516001836020036101000a031916815260200191505b50955050505050506020604051808303818588803b151561161b57600080fd5b6125ee5a03f1151561162c57600080fd5b505050506040518051905091505b5092915050565b6000813b9050919050565b60008061166c731d3b2638a7cc9f2cb3d298a3da7a90b67e5506ed611641565b111561170d57731d3b2638a7cc9f2cb3d298a3da7a90b67e5506ed6000806101000a81548173ffffffffffffffffffffffffffffffffffffffff021916908373ffffffffffffffffffffffffffffffffffffffff1602179055506117046040805190810160405280600b81526020017f6574685f6d61696e6e6574000000000000000000000000000000000000000000815250611add565b60019050611ad8565b600061172c73c03a2615d5efaf5f49f60b7bb6583eaec212fdf1611641565b11156117cd5773c03a2615d5efaf5f49f60b7bb6583eaec212fdf16000806101000a81548173ffffffffffffffffffffffffffffffffffffffff021916908373ffffffffffffffffffffffffffffffffffffffff1602179055506117c46040805190810160405280600c81526020017f6574685f726f707374656e330000000000000000000000000000000000000000815250611add565b60019050611ad8565b60006117ec73b7a07bcf2ba2f2703b24c0691b5278999c59ac7e611641565b111561188d5773b7a07bcf2ba2f2703b24c0691b5278999c59ac7e6000806101000a81548173ffffffffffffffffffffffffffffffffffffffff021916908373ffffffffffffffffffffffffffffffffffffffff1602179055506118846040805190810160405280600981526020017f6574685f6b6f76616e0000000000000000000000000000000000000000000000815250611add565b60019050611ad8565b60006118ac73146500cfd35b22e4a392fe0adc06de1a1368ed48611641565b111561194d5773146500cfd35b22e4a392fe0adc06de1a1368ed486000806101000a81548173ffffffffffffffffffffffffffffffffffffffff021916908373ffffffffffffffffffffffffffffffffffffffff1602179055506119446040805190810160405280600b81526020017f6574685f72696e6b656279000000000000000000000000000000000000000000815250611add565b60019050611ad8565b600061196c736f485c8bf6fc43ea212e93bbf8ce046c7f1cb475611641565b11156119cf57736f485c8bf6fc43ea212e93bbf8ce046c7f1cb4756000806101000a81548173ffffffffffffffffffffffffffffffffffffffff021916908373ffffffffffffffffffffffffffffffffffffffff16021790555060019050611ad8565b60006119ee7320e12a1f859b3feae5fb2a0a32c18f5a65555bbf611641565b1115611a51577320e12a1f859b3feae5fb2a0a32c18f5a65555bbf6000806101000a81548173ffffffffffffffffffffffffffffffffffffffff021916908373ffffffffffffffffffffffffffffffffffffffff16021790555060019050611ad8565b6000611a707351efaf4c8b3c9afbd5ab9f4bbc82784ab6ef8faa611641565b1115611ad3577351efaf4c8b3c9afbd5ab9f4bbc82784ab6ef8faa6000806101000a81548173ffffffffffffffffffffffffffffffffffffffff021916908373ffffffffffffffffffffffffffffffffffffffff16021790555060019050611ad8565b600090505b919050565b8060029080519060200190611af3929190611af7565b5050565b828054600181600116156101000203166002900490600052602060002090601f016020900481019282601f10611b3857805160ff1916838001178555611b66565b82800160010185558215611b66579182015b82811115611b65578251825591602001919060010190611b4a565b5b509050611b739190611b8b565b5090565b602060405190810160405280600081525090565b611bad91905b80821115611ba9576000816000905550600101611b91565b5090565b905600a165627a7a72305820572e4bd593c2794e6e32d1798274b411dac2ccefc928c70a1444c6acb4b54b290029",
  "source": "pragma solidity ^0.4.18;\nimport \"/home/jmkjr/Gambling/Training/ethereum-api-master/oraclizeAPI.sol\";\n\ncontract Outcome is usingOraclize {\n  enum Stages {\n    Betting,\n    Settlement\n  }\n\n  uint public betsPlaced;\n  mapping(address => string) public bets;\n  address public escrow;\n  address public winnerAddress;\n  address public player1;\n  address public player2;\n  string public queryResult;\n\n  // current Stage\n  Stages public stage = Stages.Betting;\n\n  modifier atStage(Stages _stage) {\n    require(stage == _stage);\n    _;\n  }\n\n  function Outcome() public payable {\n    betsPlaced = 0;\n    escrow = this;\n  }\n\n  function () public payable {\n    // accept ether\n  }\n\n  function nextStage() internal {\n    stage = Stages(uint(stage) + 1);\n  }\n\n  function getState() public constant returns (Stages) {\n    return Stages(uint(stage));\n  }\n\n  function getPlayer1Bet() public view returns (string) {\n    return bets[player1];\n  }\n\n  function getQueryResult() public view returns (string) {\n    return queryResult;\n  }\n\n  function placeBet(string teamID) public payable atStage(Stages.Betting) {\n    require(msg.value == 10000000000000000 || msg.value == 20000000000000000 || msg.value == 30000000000000000);\n    bets[msg.sender] = teamID;\n    betsPlaced += 1;\n    if (betsPlaced == 1) {\n      player1 = msg.sender;\n    }\n    if (betsPlaced == 2) {\n      player2 = msg.sender;\n      nextStage();\n      oraclize_query(\"URL\", \"json(https://blockchains-backend.herokuapp.com/get_winning_team_by_match_id/1788377376).teamId\");\n    }\n  }\n\n  function getWinnerAddress() public view atStage(Stages.Settlement) returns (address) {\n    return winnerAddress;\n  }\n\n  function __callback(bytes32 myid, string result) {\n    //winnerID = result;\n    queryResult = result;\n    if (keccak256(bets[player1]) == keccak256(result)) {\n      player1.transfer(escrow.balance);\n      winnerAddress = player1;\n    } else {\n      player2.transfer(escrow.balance);\n      winnerAddress = player2;\n    }\n  }\n\n}\n",
  "sourcePath": "/home/jmkjr/Gambling/Training/smartbets/contracts/Outcome.sol",
  "compiler": {
    "name": "solc",
    "version": "0.4.18+commit.9cf6e910.Emscripten.clang"
  },
  "schemaVersion": "1.0.1",
  "updatedAt": "2018-04-22T21:21:09.050Z"
}