{
  "contractName": "Outcome",
  "abi": [
    {
      "constant": true,
      "inputs": [],
      "name": "getWinnerAddress",
      "outputs": [
        {
          "name": "",
          "type": "address"
        }
      ],
      "payable": false,
      "stateMutability": "view",
      "type": "function"
    },
    {
      "constant": true,
      "inputs": [],
      "name": "getState",
      "outputs": [
        {
          "name": "",
          "type": "uint8"
        }
      ],
      "payable": false,
      "stateMutability": "view",
      "type": "function"
    },
    {
      "constant": false,
      "inputs": [
        {
          "name": "myid",
          "type": "bytes32"
        },
        {
          "name": "result",
          "type": "string"
        }
      ],
      "name": "__callback",
      "outputs": [],
      "payable": false,
      "stateMutability": "nonpayable",
      "type": "function"
    },
    {
      "constant": false,
      "inputs": [
        {
          "name": "myid",
          "type": "bytes32"
        },
        {
          "name": "result",
          "type": "string"
        },
        {
          "name": "proof",
          "type": "bytes"
        }
      ],
      "name": "__callback",
      "outputs": [],
      "payable": false,
      "stateMutability": "nonpayable",
      "type": "function"
    },
    {
      "constant": true,
      "inputs": [],
      "name": "player2",
      "outputs": [
        {
          "name": "",
          "type": "address"
        }
      ],
      "payable": false,
      "stateMutability": "view",
      "type": "function"
    },
    {
      "constant": true,
      "inputs": [],
      "name": "betsPlaced",
      "outputs": [
        {
          "name": "",
          "type": "uint256"
        }
      ],
      "payable": false,
      "stateMutability": "view",
      "type": "function"
    },
    {
      "constant": true,
      "inputs": [
        {
          "name": "",
          "type": "address"
        }
      ],
      "name": "bets",
      "outputs": [
        {
          "name": "",
          "type": "string"
        }
      ],
      "payable": false,
      "stateMutability": "view",
      "type": "function"
    },
    {
      "constant": false,
      "inputs": [
        {
          "name": "teamID",
          "type": "string"
        }
      ],
      "name": "placeBet",
      "outputs": [],
      "payable": true,
      "stateMutability": "payable",
      "type": "function"
    },
    {
      "constant": true,
      "inputs": [],
      "name": "stage",
      "outputs": [
        {
          "name": "",
          "type": "uint8"
        }
      ],
      "payable": false,
      "stateMutability": "view",
      "type": "function"
    },
    {
      "constant": true,
      "inputs": [],
      "name": "player1",
      "outputs": [
        {
          "name": "",
          "type": "address"
        }
      ],
      "payable": false,
      "stateMutability": "view",
      "type": "function"
    },
    {
      "constant": true,
      "inputs": [],
      "name": "escrow",
      "outputs": [
        {
          "name": "",
          "type": "address"
        }
      ],
      "payable": false,
      "stateMutability": "view",
      "type": "function"
    },
    {
      "constant": true,
      "inputs": [],
      "name": "winnerAddress",
      "outputs": [
        {
          "name": "",
          "type": "address"
        }
      ],
      "payable": false,
      "stateMutability": "view",
      "type": "function"
    },
    {
      "inputs": [],
      "payable": true,
      "stateMutability": "payable",
      "type": "constructor"
    },
    {
      "payable": true,
      "stateMutability": "payable",
      "type": "fallback"
    }
  ],
  "bytecode": "0x60606040526000600a60146101000a81548160ff0219169083600181111561002357fe5b0217905550600060058190555030600760006101000a81548173ffffffffffffffffffffffffffffffffffffffff021916908373ffffffffffffffffffffffffffffffffffffffff160217905550611762806100806000396000f3006060604052600436106100ba576000357c0100000000000000000000000000000000000000000000000000000000900463ffffffff16806310a37c26146100bc5780631865c57d1461011157806327dc297e1461014857806338bbfa50146101b257806359a5f12d1461025f578063645cafb3146102b457806389a78f1a146102dd57806397bfeb881461038f578063c040e6b8146103e1578063d30895e414610418578063e2fdcc171461046d578063ed7a4e0b146104c2575b005b34156100c757600080fd5b6100cf610517565b604051808273ffffffffffffffffffffffffffffffffffffffff1673ffffffffffffffffffffffffffffffffffffffff16815260200191505060405180910390f35b341561011c57600080fd5b610124610577565b6040518082600181111561013457fe5b60ff16815260200191505060405180910390f35b341561015357600080fd5b6101b060048080356000191690602001909190803590602001908201803590602001908080601f016020809104026020016040519081016040528093929190818152602001838380828437820191505050505050919050506105a4565b005b34156101bd57600080fd5b61025d60048080356000191690602001909190803590602001908201803590602001908080601f0160208091040260200160405190810160405280939291908181526020018383808284378201915050505050509190803590602001908201803590602001908080601f016020809104026020016040519081016040528093929190818152602001838380828437820191505050505050919050506108e4565b005b341561026a57600080fd5b6102726108e9565b604051808273ffffffffffffffffffffffffffffffffffffffff1673ffffffffffffffffffffffffffffffffffffffff16815260200191505060405180910390f35b34156102bf57600080fd5b6102c761090f565b6040518082815260200191505060405180910390f35b34156102e857600080fd5b610314600480803573ffffffffffffffffffffffffffffffffffffffff16906020019091905050610915565b6040518080602001828103825283818151815260200191508051906020019080838360005b83811015610354578082015181840152602081019050610339565b50505050905090810190601f1680156103815780820380516001836020036101000a031916815260200191505b509250505060405180910390f35b6103df600480803590602001908201803590602001908080601f016020809104026020016040519081016040528093929190818152602001838380828437820191505050505050919050506109c5565b005b34156103ec57600080fd5b6103f4610bc7565b6040518082600181111561040457fe5b60ff16815260200191505060405180910390f35b341561042357600080fd5b61042b610bda565b604051808273ffffffffffffffffffffffffffffffffffffffff1673ffffffffffffffffffffffffffffffffffffffff16815260200191505060405180910390f35b341561047857600080fd5b610480610c00565b604051808273ffffffffffffffffffffffffffffffffffffffff1673ffffffffffffffffffffffffffffffffffffffff16815260200191505060405180910390f35b34156104cd57600080fd5b6104d5610c26565b604051808273ffffffffffffffffffffffffffffffffffffffff1673ffffffffffffffffffffffffffffffffffffffff16815260200191505060405180910390f35b6000600180600181111561052757fe5b600a60149054906101000a900460ff16600181111561054257fe5b14151561054e57600080fd5b600860009054906101000a900473ffffffffffffffffffffffffffffffffffffffff1691505090565b6000600a60149054906101000a900460ff16600181111561059457fe5b600181111561059f57fe5b905090565b806040518082805190602001908083835b6020831015156105da57805182526020820191506020810190506020830392506105b5565b6001836020036101000a03801982511681845116808217855250505050505090500191505060405180910390206000191660066000600960009054906101000a900473ffffffffffffffffffffffffffffffffffffffff1673ffffffffffffffffffffffffffffffffffffffff1673ffffffffffffffffffffffffffffffffffffffff16815260200190815260200160002060405180828054600181600116156101000203166002900480156106c75780601f106106a55761010080835404028352918201916106c7565b820191906000526020600020905b8154815290600101906020018083116106b3575b505091505060405180910390206000191614156107e157600960009054906101000a900473ffffffffffffffffffffffffffffffffffffffff1673ffffffffffffffffffffffffffffffffffffffff166108fc600760009054906101000a900473ffffffffffffffffffffffffffffffffffffffff1673ffffffffffffffffffffffffffffffffffffffff16319081150290604051600060405180830381858888f19350505050151561077957600080fd5b600960009054906101000a900473ffffffffffffffffffffffffffffffffffffffff16600860006101000a81548173ffffffffffffffffffffffffffffffffffffffff021916908373ffffffffffffffffffffffffffffffffffffffff1602179055506108e0565b600a60009054906101000a900473ffffffffffffffffffffffffffffffffffffffff1673ffffffffffffffffffffffffffffffffffffffff166108fc600760009054906101000a900473ffffffffffffffffffffffffffffffffffffffff1673ffffffffffffffffffffffffffffffffffffffff16319081150290604051600060405180830381858888f19350505050151561087c57600080fd5b600a60009054906101000a900473ffffffffffffffffffffffffffffffffffffffff16600860006101000a81548173ffffffffffffffffffffffffffffffffffffffff021916908373ffffffffffffffffffffffffffffffffffffffff1602179055505b5050565b505050565b600a60009054906101000a900473ffffffffffffffffffffffffffffffffffffffff1681565b60055481565b60066020528060005260406000206000915090508054600181600116156101000203166002900480601f0160208091040260200160405190810160405280929190818152602001828054600181600116156101000203166002900480156109bd5780601f10610992576101008083540402835291602001916109bd565b820191906000526020600020905b8154815290600101906020018083116109a057829003601f168201915b505050505081565b60008060018111156109d357fe5b600a60149054906101000a900460ff1660018111156109ee57fe5b1415156109fa57600080fd5b81600660003373ffffffffffffffffffffffffffffffffffffffff1673ffffffffffffffffffffffffffffffffffffffff1681526020019081526020016000209080519060200190610a4d929190611691565b50600160056000828254019250508190555060016005541415610aac5733600960006101000a81548173ffffffffffffffffffffffffffffffffffffffff021916908373ffffffffffffffffffffffffffffffffffffffff1602179055505b60026005541415610bc35733600a60006101000a81548173ffffffffffffffffffffffffffffffffffffffff021916908373ffffffffffffffffffffffffffffffffffffffff160217905550610b00610c4c565b610bc16040805190810160405280600381526020017f55524c0000000000000000000000000000000000000000000000000000000000815250608060405190810160405280605e81526020017f6a736f6e2868747470733a2f2f626c6f636b636861696e732d6261636b656e6481526020017f2e6865726f6b756170702e636f6d2f6765745f77696e6e696e675f7465616d5f81526020017f62795f6d617463685f69642f31373838333737333736292e7465616d49640000815250610c99565b505b5050565b600a60149054906101000a900460ff1681565b600960009054906101000a900473ffffffffffffffffffffffffffffffffffffffff1681565b600760009054906101000a900473ffffffffffffffffffffffffffffffffffffffff1681565b600860009054906101000a900473ffffffffffffffffffffffffffffffffffffffff1681565b6001600a60149054906101000a900460ff166001811115610c6957fe5b016001811115610c7557fe5b600a60146101000a81548160ff02191690836001811115610c9257fe5b0217905550565b60008060008060009054906101000a900473ffffffffffffffffffffffffffffffffffffffff1673ffffffffffffffffffffffffffffffffffffffff161480610d0b57506000610d096000809054906101000a900473ffffffffffffffffffffffffffffffffffffffff166111db565b145b15610d1c57610d1a60006111e6565b505b6000809054906101000a900473ffffffffffffffffffffffffffffffffffffffff1673ffffffffffffffffffffffffffffffffffffffff166338cc48316000604051602001526040518163ffffffff167c0100000000000000000000000000000000000000000000000000000000028152600401602060405180830381600087803b1515610da957600080fd5b6102c65a03f11515610dba57600080fd5b5050506040518051905073ffffffffffffffffffffffffffffffffffffffff16600160009054906101000a900473ffffffffffffffffffffffffffffffffffffffff1673ffffffffffffffffffffffffffffffffffffffff16141515610f03576000809054906101000a900473ffffffffffffffffffffffffffffffffffffffff1673ffffffffffffffffffffffffffffffffffffffff166338cc48316000604051602001526040518163ffffffff167c0100000000000000000000000000000000000000000000000000000000028152600401602060405180830381600087803b1515610ea757600080fd5b6102c65a03f11515610eb857600080fd5b50505060405180519050600160006101000a81548173ffffffffffffffffffffffffffffffffffffffff021916908373ffffffffffffffffffffffffffffffffffffffff1602179055505b600160009054906101000a900473ffffffffffffffffffffffffffffffffffffffff1673ffffffffffffffffffffffffffffffffffffffff1663524f3889856000604051602001526040518263ffffffff167c01000000000000000000000000000000000000000000000000000000000281526004018080602001828103825283818151815260200191508051906020019080838360005b83811015610fb6578082015181840152602081019050610f9b565b50505050905090810190601f168015610fe35780820380516001836020036101000a031916815260200191505b5092505050602060405180830381600087803b151561100157600080fd5b6102c65a03f1151561101257600080fd5b50505060405180519050905062030d403a02670de0b6b3a76400000181111561104157600060010291506111d4565b600160009054906101000a900473ffffffffffffffffffffffffffffffffffffffff1673ffffffffffffffffffffffffffffffffffffffff1663adf59f9982600087876000604051602001526040518563ffffffff167c0100000000000000000000000000000000000000000000000000000000028152600401808481526020018060200180602001838103835285818151815260200191508051906020019080838360005b838110156111025780820151818401526020810190506110e7565b50505050905090810190601f16801561112f5780820380516001836020036101000a031916815260200191505b50838103825284818151815260200191508051906020019080838360005b8381101561116857808201518184015260208101905061114d565b50505050905090810190601f1680156111955780820380516001836020036101000a031916815260200191505b50955050505050506020604051808303818588803b15156111b557600080fd5b6125ee5a03f115156111c657600080fd5b505050506040518051905091505b5092915050565b6000813b9050919050565b600080611206731d3b2638a7cc9f2cb3d298a3da7a90b67e5506ed6111db565b11156112a757731d3b2638a7cc9f2cb3d298a3da7a90b67e5506ed6000806101000a81548173ffffffffffffffffffffffffffffffffffffffff021916908373ffffffffffffffffffffffffffffffffffffffff16021790555061129e6040805190810160405280600b81526020017f6574685f6d61696e6e6574000000000000000000000000000000000000000000815250611677565b60019050611672565b60006112c673c03a2615d5efaf5f49f60b7bb6583eaec212fdf16111db565b11156113675773c03a2615d5efaf5f49f60b7bb6583eaec212fdf16000806101000a81548173ffffffffffffffffffffffffffffffffffffffff021916908373ffffffffffffffffffffffffffffffffffffffff16021790555061135e6040805190810160405280600c81526020017f6574685f726f707374656e330000000000000000000000000000000000000000815250611677565b60019050611672565b600061138673b7a07bcf2ba2f2703b24c0691b5278999c59ac7e6111db565b11156114275773b7a07bcf2ba2f2703b24c0691b5278999c59ac7e6000806101000a81548173ffffffffffffffffffffffffffffffffffffffff021916908373ffffffffffffffffffffffffffffffffffffffff16021790555061141e6040805190810160405280600981526020017f6574685f6b6f76616e0000000000000000000000000000000000000000000000815250611677565b60019050611672565b600061144673146500cfd35b22e4a392fe0adc06de1a1368ed486111db565b11156114e75773146500cfd35b22e4a392fe0adc06de1a1368ed486000806101000a81548173ffffffffffffffffffffffffffffffffffffffff021916908373ffffffffffffffffffffffffffffffffffffffff1602179055506114de6040805190810160405280600b81526020017f6574685f72696e6b656279000000000000000000000000000000000000000000815250611677565b60019050611672565b6000611506736f485c8bf6fc43ea212e93bbf8ce046c7f1cb4756111db565b111561156957736f485c8bf6fc43ea212e93bbf8ce046c7f1cb4756000806101000a81548173ffffffffffffffffffffffffffffffffffffffff021916908373ffffffffffffffffffffffffffffffffffffffff16021790555060019050611672565b60006115887320e12a1f859b3feae5fb2a0a32c18f5a65555bbf6111db565b11156115eb577320e12a1f859b3feae5fb2a0a32c18f5a65555bbf6000806101000a81548173ffffffffffffffffffffffffffffffffffffffff021916908373ffffffffffffffffffffffffffffffffffffffff16021790555060019050611672565b600061160a7351efaf4c8b3c9afbd5ab9f4bbc82784ab6ef8faa6111db565b111561166d577351efaf4c8b3c9afbd5ab9f4bbc82784ab6ef8faa6000806101000a81548173ffffffffffffffffffffffffffffffffffffffff021916908373ffffffffffffffffffffffffffffffffffffffff16021790555060019050611672565b600090505b919050565b806002908051906020019061168d929190611691565b5050565b828054600181600116156101000203166002900490600052602060002090601f016020900481019282601f106116d257805160ff1916838001178555611700565b82800160010185558215611700579182015b828111156116ff5782518255916020019190600101906116e4565b5b50905061170d9190611711565b5090565b61173391905b8082111561172f576000816000905550600101611717565b5090565b905600a165627a7a723058200b79e97fe90811ad82e24d57e0b7a3d1e3bb403e3259df3f3ff078d491c47c5e0029",
  "source": "pragma solidity ^0.4.18;\nimport \"/home/jmkjr/Gambling/Training/ethereum-api-master/oraclizeAPI.sol\";\n\ncontract Outcome is usingOraclize {\n  enum Stages {\n    Betting,\n    Settlement\n  }\n\n  uint public betsPlaced;\n  mapping(address => string) public bets;\n  address public escrow;\n  address public winnerAddress;\n  address public player1;\n  address public player2;\n\n  // current Stage\n  Stages public stage = Stages.Betting;\n\n  modifier atStage(Stages _stage) {\n    require(stage == _stage);\n    _;\n  }\n\n  function Outcome() public payable {\n    betsPlaced = 0;\n    escrow = this;\n  }\n\n  function () public payable {\n    // accept ether\n  }\n\n  function nextStage() internal {\n    stage = Stages(uint(stage) + 1);\n  }\n\n  function getState() public constant returns (Stages) {\n    return Stages(uint(stage));\n  }\n\n  function placeBet(string teamID) public payable atStage(Stages.Betting) {\n    bets[msg.sender] = teamID;\n    betsPlaced += 1;\n    if (betsPlaced == 1) {\n      player1 = msg.sender;\n    }\n    if (betsPlaced == 2) {\n      player2 = msg.sender;\n      nextStage();\n      oraclize_query(\"URL\", \"json(https://blockchains-backend.herokuapp.com/get_winning_team_by_match_id/1788377376).teamId\");\n    }\n  }\n\n  function getWinnerAddress() public view atStage(Stages.Settlement) returns (address) {\n    return winnerAddress;\n  }\n\n  function __callback(bytes32 myid, string result) {\n    //winnerID = result;\n    if (keccak256(bets[player1]) == keccak256(result)) {\n      player1.transfer(escrow.balance);\n      winnerAddress = player1;\n    } else {\n      player2.transfer(escrow.balance);\n      winnerAddress = player2;\n    }\n  }\n\n}\n",
  "sourcePath": "/home/jmkjr/Gambling/Training/smartbets/contracts/Outcome.sol",
  "compiler": {
    "name": "solc",
    "version": "0.4.18+commit.9cf6e910.Emscripten.clang"
  },
  "schemaVersion": "1.0.1",
  "updatedAt": "2018-04-22T19:21:24.482Z"
}